{
  "_format": "hh-sol-artifact-1",
  "contractName": "LEDQuadraticVoting",
  "sourceName": "contracts/LEDQuadraticVoting.sol",
  "abi": [
    {
      "inputs": [],
      "stateMutability": "nonpayable",
      "type": "constructor"
    },
    {
      "anonymous": false,
      "inputs": [
        {
          "indexed": false,
          "internalType": "uint256",
          "name": "timeRED",
          "type": "uint256"
        },
        {
          "indexed": false,
          "internalType": "uint256",
          "name": "timeGREEN",
          "type": "uint256"
        },
        {
          "indexed": false,
          "internalType": "uint256",
          "name": "timeBLUE",
          "type": "uint256"
        }
      ],
      "name": "TimeCalculated",
      "type": "event"
    },
    {
      "anonymous": false,
      "inputs": [
        {
          "indexed": true,
          "internalType": "address",
          "name": "voter",
          "type": "address"
        },
        {
          "indexed": false,
          "internalType": "uint256",
          "name": "voteRED",
          "type": "uint256"
        },
        {
          "indexed": false,
          "internalType": "uint256",
          "name": "voteGREEN",
          "type": "uint256"
        },
        {
          "indexed": false,
          "internalType": "uint256",
          "name": "voteBLUE",
          "type": "uint256"
        }
      ],
      "name": "Voted",
      "type": "event"
    },
    {
      "anonymous": false,
      "inputs": [
        {
          "indexed": false,
          "internalType": "uint256",
          "name": "newEndTime",
          "type": "uint256"
        }
      ],
      "name": "VotingCycleReset",
      "type": "event"
    },
    {
      "inputs": [],
      "name": "MAX_TOKENS",
      "outputs": [
        {
          "internalType": "uint256",
          "name": "",
          "type": "uint256"
        }
      ],
      "stateMutability": "view",
      "type": "function"
    },
    {
      "inputs": [],
      "name": "cycleEndTime",
      "outputs": [
        {
          "internalType": "uint256",
          "name": "",
          "type": "uint256"
        }
      ],
      "stateMutability": "view",
      "type": "function"
    },
    {
      "inputs": [],
      "name": "getResult",
      "outputs": [],
      "stateMutability": "nonpayable",
      "type": "function"
    },
    {
      "inputs": [
        {
          "internalType": "address",
          "name": "",
          "type": "address"
        }
      ],
      "name": "hasVoted",
      "outputs": [
        {
          "internalType": "bool",
          "name": "",
          "type": "bool"
        }
      ],
      "stateMutability": "view",
      "type": "function"
    },
    {
      "inputs": [],
      "name": "isCycleEnded",
      "outputs": [
        {
          "internalType": "bool",
          "name": "",
          "type": "bool"
        }
      ],
      "stateMutability": "view",
      "type": "function"
    },
    {
      "inputs": [],
      "name": "reset",
      "outputs": [],
      "stateMutability": "nonpayable",
      "type": "function"
    },
    {
      "inputs": [],
      "name": "timeBLUE",
      "outputs": [
        {
          "internalType": "uint256",
          "name": "",
          "type": "uint256"
        }
      ],
      "stateMutability": "view",
      "type": "function"
    },
    {
      "inputs": [],
      "name": "timeGREEN",
      "outputs": [
        {
          "internalType": "uint256",
          "name": "",
          "type": "uint256"
        }
      ],
      "stateMutability": "view",
      "type": "function"
    },
    {
      "inputs": [],
      "name": "timeRED",
      "outputs": [
        {
          "internalType": "uint256",
          "name": "",
          "type": "uint256"
        }
      ],
      "stateMutability": "view",
      "type": "function"
    },
    {
      "inputs": [
        {
          "internalType": "uint256",
          "name": "_redVotes",
          "type": "uint256"
        },
        {
          "internalType": "uint256",
          "name": "_greenVotes",
          "type": "uint256"
        },
        {
          "internalType": "uint256",
          "name": "_blueVotes",
          "type": "uint256"
        }
      ],
      "name": "vote",
      "outputs": [],
      "stateMutability": "nonpayable",
      "type": "function"
    },
    {
      "inputs": [],
      "name": "voteBLUE",
      "outputs": [
        {
          "internalType": "uint256",
          "name": "",
          "type": "uint256"
        }
      ],
      "stateMutability": "view",
      "type": "function"
    },
    {
      "inputs": [],
      "name": "voteGREEN",
      "outputs": [
        {
          "internalType": "uint256",
          "name": "",
          "type": "uint256"
        }
      ],
      "stateMutability": "view",
      "type": "function"
    },
    {
      "inputs": [],
      "name": "voteRED",
      "outputs": [
        {
          "internalType": "uint256",
          "name": "",
          "type": "uint256"
        }
      ],
      "stateMutability": "view",
      "type": "function"
    },
    {
      "inputs": [
        {
          "internalType": "uint256",
          "name": "",
          "type": "uint256"
        }
      ],
      "name": "voters",
      "outputs": [
        {
          "internalType": "address",
          "name": "",
          "type": "address"
        }
      ],
      "stateMutability": "view",
      "type": "function"
    }
  ],
  "bytecode": "0x6080604052348015600f57600080fd5b50603c42601b9190605e565b600081905550608b565b6000819050919050565b7f4e487b7100000000000000000000000000000000000000000000000000000000600052601160045260246000fd5b60006067826025565b91506070836025565b92508282019050808211156085576084602f565b5b92915050565b610e648061009a6000396000f3fe608060405234801561001057600080fd5b50600436106100ea5760003560e01c80638a6655d61161008c578063d826f88f11610066578063d826f88f1461022b578063da58c7d914610235578063de29278914610265578063f47c84c51461026f576100ea565b80638a6655d6146101d3578063975ffc63146101ef578063ce5f9da31461020d576100ea565b80633e1d9e85116100c85780633e1d9e851461015b5780637965814a146101795780637fee969c14610197578063844c4264146101b5576100ea565b806309afd0d5146100ef57806309eef43e1461010d578063194f01991461013d575b600080fd5b6100f761028d565b604051610104919061096b565b60405180910390f35b610127600480360381019061012291906109e9565b610293565b6040516101349190610a31565b60405180910390f35b6101456102b3565b604051610152919061096b565b60405180910390f35b6101636102b9565b604051610170919061096b565b60405180910390f35b6101816102bf565b60405161018e919061096b565b60405180910390f35b61019f6102c5565b6040516101ac919061096b565b60405180910390f35b6101bd6102cb565b6040516101ca919061096b565b60405180910390f35b6101ed60048036038101906101e89190610a78565b6102d1565b005b6101f761057b565b6040516102049190610a31565b60405180910390f35b610215610587565b604051610222919061096b565b60405180910390f35b61023361058d565b005b61024f600480360381019061024a9190610acb565b6105a5565b60405161025c9190610b07565b60405180910390f35b61026d6105e4565b005b6102776105ff565b604051610284919061096b565b60405180910390f35b60065481565b60076020528060005260406000206000915054906101000a900460ff1681565b60035481565b60015481565b60025481565b60055481565b60005481565b600760003373ffffffffffffffffffffffffffffffffffffffff1673ffffffffffffffffffffffffffffffffffffffff16815260200190815260200160002060009054906101000a900460ff161561035e576040517f08c379a000000000000000000000000000000000000000000000000000000000815260040161035590610ba5565b60405180910390fd5b61036661057b565b156103a6576040517f08c379a000000000000000000000000000000000000000000000000000000000815260040161039d90610c11565b60405180910390fd5b60008183856103b59190610c60565b6103bf9190610c60565b9050600a811115610405576040517f08c379a00000000000000000000000000000000000000000000000000000000081526004016103fc90610d06565b60405180910390fd5b61040e84610604565b6001600082825461041f9190610c60565b9250508190555061042f83610604565b600260008282546104409190610c60565b9250508190555061045082610604565b600360008282546104619190610c60565b925050819055506001600760003373ffffffffffffffffffffffffffffffffffffffff1673ffffffffffffffffffffffffffffffffffffffff16815260200190815260200160002060006101000a81548160ff0219169083151502179055506008339080600181540180825580915050600190039060005260206000200160009091909190916101000a81548173ffffffffffffffffffffffffffffffffffffffff021916908373ffffffffffffffffffffffffffffffffffffffff1602179055503373ffffffffffffffffffffffffffffffffffffffff167fc32b42768a47a585121e9b8d7a2ab9d3f34c326a192dee11ee1732e3d18313f385858560405161056d93929190610d26565b60405180910390a250505050565b60008054421015905090565b60045481565b61059561057b565b156105a3576105a2610667565b5b565b600881815481106105b557600080fd5b906000526020600020016000915054906101000a900473ffffffffffffffffffffffffffffffffffffffff1681565b6105ec61057b565b156105fd576105f96106d5565b5050505b565b600a81565b60008060026001846106169190610c60565b6106209190610d8c565b905060008390505b8082101561065d5781905060028283866106429190610d8c565b61064c9190610c60565b6106569190610d8c565b9150610628565b8092505050919050565b600060018190555060006002819055506000600381905550603c4261068c9190610c60565b60008190555061069a610850565b7faa79dc0d27c7d317fa606b03d1fc4e864f2221ccf2a4beec73550bdde7d27c376000546040516106cb919061096b565b60405180910390a1565b6000806000806001546001546106eb9190610dbd565b905060006002546002546106ff9190610dbd565b905060006003546003546107139190610dbd565b905060008183856107249190610c60565b61072e9190610c60565b90506000810361074c5760008060009650965096505050505061084b565b6000670de0b6b3a76400009050603c818383886107699190610dbd565b6107739190610d8c565b61077d9190610dbd565b6107879190610dbd565b600481905550603c8183838761079d9190610dbd565b6107a79190610d8c565b6107b19190610dbd565b6107bb9190610dbd565b600581905550603c818383866107d19190610dbd565b6107db9190610d8c565b6107e59190610dbd565b6107ef9190610dbd565b6006819055507f4ce8b3b8b9ecbbfca3d69681adeea3a50c881a9a95e9c12bd4939580b18b5fa560045460055460065460405161082e93929190610d26565b60405180910390a160045460055460065497509750975050505050505b909192565b60005b600880549050811015610903576000600760006008848154811061087a57610879610dff565b5b9060005260206000200160009054906101000a900473ffffffffffffffffffffffffffffffffffffffff1673ffffffffffffffffffffffffffffffffffffffff1673ffffffffffffffffffffffffffffffffffffffff16815260200190815260200160002060006101000a81548160ff0219169083151502179055508080600101915050610853565b50600860006109129190610914565b565b50805460008255906000526020600020908101906109329190610935565b50565b5b8082111561094e576000816000905550600101610936565b5090565b6000819050919050565b61096581610952565b82525050565b6000602082019050610980600083018461095c565b92915050565b600080fd5b600073ffffffffffffffffffffffffffffffffffffffff82169050919050565b60006109b68261098b565b9050919050565b6109c6816109ab565b81146109d157600080fd5b50565b6000813590506109e3816109bd565b92915050565b6000602082840312156109ff576109fe610986565b5b6000610a0d848285016109d4565b91505092915050565b60008115159050919050565b610a2b81610a16565b82525050565b6000602082019050610a466000830184610a22565b92915050565b610a5581610952565b8114610a6057600080fd5b50565b600081359050610a7281610a4c565b92915050565b600080600060608486031215610a9157610a90610986565b5b6000610a9f86828701610a63565b9350506020610ab086828701610a63565b9250506040610ac186828701610a63565b9150509250925092565b600060208284031215610ae157610ae0610986565b5b6000610aef84828501610a63565b91505092915050565b610b01816109ab565b82525050565b6000602082019050610b1c6000830184610af8565b92915050565b600082825260208201905092915050565b7f596f75206861766520616c726561647920766f7465642074686973206379636c60008201527f6500000000000000000000000000000000000000000000000000000000000000602082015250565b6000610b8f602183610b22565b9150610b9a82610b33565b604082019050919050565b60006020820190508181036000830152610bbe81610b82565b9050919050565b7f566f74696e67206379636c652068617320656e64656400000000000000000000600082015250565b6000610bfb601683610b22565b9150610c0682610bc5565b602082019050919050565b60006020820190508181036000830152610c2a81610bee565b9050919050565b7f4e487b7100000000000000000000000000000000000000000000000000000000600052601160045260246000fd5b6000610c6b82610952565b9150610c7683610952565b9250828201905080821115610c8e57610c8d610c31565b5b92915050565b7f51756164726174696320636f7374206578636565647320617661696c61626c6560008201527f20746f6b656e7300000000000000000000000000000000000000000000000000602082015250565b6000610cf0602783610b22565b9150610cfb82610c94565b604082019050919050565b60006020820190508181036000830152610d1f81610ce3565b9050919050565b6000606082019050610d3b600083018661095c565b610d48602083018561095c565b610d55604083018461095c565b949350505050565b7f4e487b7100000000000000000000000000000000000000000000000000000000600052601260045260246000fd5b6000610d9782610952565b9150610da283610952565b925082610db257610db1610d5d565b5b828204905092915050565b6000610dc882610952565b9150610dd383610952565b9250828202610de181610952565b91508282048414831517610df857610df7610c31565b5b5092915050565b7f4e487b7100000000000000000000000000000000000000000000000000000000600052603260045260246000fdfea2646970667358221220d58ebadc42dcb058d11771b0c310b512a490642b695531dbb4446af9658aaa7364736f6c634300081b0033",
  "linkReferences": {},
  "deployedLinkReferences": {}
}